{
  "_format": "hh-sol-artifact-1",
  "contractName": "NFTMarket",
  "sourceName": "contracts/NFTMarket.sol",
  "abi": [
    {
      "inputs": [],
      "stateMutability": "nonpayable",
      "type": "constructor"
    },
    {
      "anonymous": false,
      "inputs": [
        {
          "indexed": true,
          "internalType": "uint256",
          "name": "itemId",
          "type": "uint256"
        },
        {
          "indexed": true,
          "internalType": "address",
          "name": "nftContract",
          "type": "address"
        },
        {
          "indexed": true,
          "internalType": "uint256",
          "name": "tokenId",
          "type": "uint256"
        },
        {
          "indexed": false,
          "internalType": "address payable",
          "name": "seller",
          "type": "address"
        },
        {
          "indexed": false,
          "internalType": "address payable",
          "name": "owner",
          "type": "address"
        },
        {
          "indexed": false,
          "internalType": "uint256",
          "name": "price",
          "type": "uint256"
        },
        {
          "indexed": false,
          "internalType": "bool",
          "name": "sold",
          "type": "bool"
        }
      ],
      "name": "MarketItemCreated",
      "type": "event"
    },
    {
      "inputs": [
        {
          "internalType": "address",
          "name": "nftContract",
          "type": "address"
        },
        {
          "internalType": "uint256",
          "name": "tokenId",
          "type": "uint256"
        },
        {
          "internalType": "uint256",
          "name": "price",
          "type": "uint256"
        }
      ],
      "name": "createMarketItem",
      "outputs": [],
      "stateMutability": "payable",
      "type": "function"
    },
    {
      "inputs": [
        {
          "internalType": "address",
          "name": "nftContract",
          "type": "address"
        },
        {
          "internalType": "uint256",
          "name": "itemId",
          "type": "uint256"
        }
      ],
      "name": "createMarketSale",
      "outputs": [],
      "stateMutability": "payable",
      "type": "function"
    },
    {
      "inputs": [],
      "name": "fetchItemsCreated",
      "outputs": [
        {
          "components": [
            {
              "internalType": "uint256",
              "name": "itemId",
              "type": "uint256"
            },
            {
              "internalType": "address",
              "name": "nftContract",
              "type": "address"
            },
            {
              "internalType": "uint256",
              "name": "tokenId",
              "type": "uint256"
            },
            {
              "internalType": "address payable",
              "name": "seller",
              "type": "address"
            },
            {
              "internalType": "address payable",
              "name": "owner",
              "type": "address"
            },
            {
              "internalType": "uint256",
              "name": "price",
              "type": "uint256"
            },
            {
              "internalType": "bool",
              "name": "sold",
              "type": "bool"
            }
          ],
          "internalType": "struct NFTMarket.MarketItem[]",
          "name": "",
          "type": "tuple[]"
        }
      ],
      "stateMutability": "view",
      "type": "function"
    },
    {
      "inputs": [],
      "name": "fetchMarketitems",
      "outputs": [
        {
          "components": [
            {
              "internalType": "uint256",
              "name": "itemId",
              "type": "uint256"
            },
            {
              "internalType": "address",
              "name": "nftContract",
              "type": "address"
            },
            {
              "internalType": "uint256",
              "name": "tokenId",
              "type": "uint256"
            },
            {
              "internalType": "address payable",
              "name": "seller",
              "type": "address"
            },
            {
              "internalType": "address payable",
              "name": "owner",
              "type": "address"
            },
            {
              "internalType": "uint256",
              "name": "price",
              "type": "uint256"
            },
            {
              "internalType": "bool",
              "name": "sold",
              "type": "bool"
            }
          ],
          "internalType": "struct NFTMarket.MarketItem[]",
          "name": "",
          "type": "tuple[]"
        }
      ],
      "stateMutability": "view",
      "type": "function"
    },
    {
      "inputs": [],
      "name": "fetchMyNFTs",
      "outputs": [
        {
          "components": [
            {
              "internalType": "uint256",
              "name": "itemId",
              "type": "uint256"
            },
            {
              "internalType": "address",
              "name": "nftContract",
              "type": "address"
            },
            {
              "internalType": "uint256",
              "name": "tokenId",
              "type": "uint256"
            },
            {
              "internalType": "address payable",
              "name": "seller",
              "type": "address"
            },
            {
              "internalType": "address payable",
              "name": "owner",
              "type": "address"
            },
            {
              "internalType": "uint256",
              "name": "price",
              "type": "uint256"
            },
            {
              "internalType": "bool",
              "name": "sold",
              "type": "bool"
            }
          ],
          "internalType": "struct NFTMarket.MarketItem[]",
          "name": "",
          "type": "tuple[]"
        }
      ],
      "stateMutability": "view",
      "type": "function"
    },
    {
      "inputs": [],
      "name": "getListingPrice",
      "outputs": [
        {
          "internalType": "uint256",
          "name": "",
          "type": "uint256"
        }
      ],
      "stateMutability": "view",
      "type": "function"
    }
  ],
  "bytecode": "0x60806040526658d15e1762800060045534801561001b57600080fd5b50600160008190555033600360006101000a81548173ffffffffffffffffffffffffffffffffffffffff021916908373ffffffffffffffffffffffffffffffffffffffff160217905550611986806100746000396000f3fe6080604052600436106100555760003560e01c806312e855851461005a578063202e37401461008557806358eb2df5146100b057806385006bc0146100cc578063c23b139e146100f7578063f064c32e14610113575b600080fd5b34801561006657600080fd5b5061006f61013e565b60405161007c9190611671565b60405180910390f35b34801561009157600080fd5b5061009a610148565b6040516100a791906115cf565b60405180910390f35b6100ca60048036038101906100c591906112fc565b6104f8565b005b3480156100d857600080fd5b506100e161085c565b6040516100ee91906115cf565b60405180910390f35b610111600480360381019061010c91906112c0565b610b88565b005b34801561011f57600080fd5b50610128610e41565b60405161013591906115cf565b60405180910390f35b6000600454905090565b6060600061015660016111f1565b905060008060005b838110156101ff573373ffffffffffffffffffffffffffffffffffffffff166005600060018461018e91906116d6565b815260200190815260200160002060040160009054906101000a900473ffffffffffffffffffffffffffffffffffffffff1673ffffffffffffffffffffffffffffffffffffffff1614156101ec576001836101e991906116d6565b92505b80806101f7906117ba565b91505061015e565b5060008267ffffffffffffffff811115610242577f4e487b7100000000000000000000000000000000000000000000000000000000600052604160045260246000fd5b60405190808252806020026020018201604052801561027b57816020015b610268611215565b8152602001906001900390816102605790505b50905060005b848110156104ed573373ffffffffffffffffffffffffffffffffffffffff16600560006001846102b191906116d6565b815260200190815260200160002060040160009054906101000a900473ffffffffffffffffffffffffffffffffffffffff1673ffffffffffffffffffffffffffffffffffffffff1614156104da5760006005600060018461031291906116d6565b81526020019081526020016000206000015490506000600560008381526020019081526020016000209050806040518060e0016040529081600082015481526020016001820160009054906101000a900473ffffffffffffffffffffffffffffffffffffffff1673ffffffffffffffffffffffffffffffffffffffff1673ffffffffffffffffffffffffffffffffffffffff168152602001600282015481526020016003820160009054906101000a900473ffffffffffffffffffffffffffffffffffffffff1673ffffffffffffffffffffffffffffffffffffffff1673ffffffffffffffffffffffffffffffffffffffff1681526020016004820160009054906101000a900473ffffffffffffffffffffffffffffffffffffffff1673ffffffffffffffffffffffffffffffffffffffff1673ffffffffffffffffffffffffffffffffffffffff168152602001600582015481526020016006820160009054906101000a900460ff1615151515815250508486815181106104bd577f4e487b7100000000000000000000000000000000000000000000000000000000600052603260045260246000fd5b60200260200101819052506001856104d591906116d6565b945050505b80806104e5906117ba565b915050610281565b508094505050505090565b6002600054141561053e576040517f08c379a000000000000000000000000000000000000000000000000000000000815260040161053590611651565b60405180910390fd5b600260008190555060008111610589576040517f08c379a0000000000000000000000000000000000000000000000000000000008152600401610580906115f1565b60405180910390fd5b60045434146105cd576040517f08c379a00000000000000000000000000000000000000000000000000000000081526004016105c490611611565b60405180910390fd5b6105d760016111ff565b60006105e360016111f1565b90506040518060e001604052808281526020018573ffffffffffffffffffffffffffffffffffffffff1681526020018481526020013373ffffffffffffffffffffffffffffffffffffffff168152602001600073ffffffffffffffffffffffffffffffffffffffff16815260200183815260200160001515815250600560008381526020019081526020016000206000820151816000015560208201518160010160006101000a81548173ffffffffffffffffffffffffffffffffffffffff021916908373ffffffffffffffffffffffffffffffffffffffff1602179055506040820151816002015560608201518160030160006101000a81548173ffffffffffffffffffffffffffffffffffffffff021916908373ffffffffffffffffffffffffffffffffffffffff16021790555060808201518160040160006101000a81548173ffffffffffffffffffffffffffffffffffffffff021916908373ffffffffffffffffffffffffffffffffffffffff16021790555060a0820151816005015560c08201518160060160006101000a81548160ff0219169083151502179055509050508373ffffffffffffffffffffffffffffffffffffffff166323b872dd3330866040518463ffffffff1660e01b81526004016107c493929190611598565b600060405180830381600087803b1580156107de57600080fd5b505af11580156107f2573d6000803e3d6000fd5b50505050828473ffffffffffffffffffffffffffffffffffffffff16827f045dfa01dcba2b36aba1d3dc4a874f4b0c5d2fbeb8d2c4b34a7d88c8d8f929d13360008760006040516108469493929190611553565b60405180910390a4506001600081905550505050565b6060600061086a60016111f1565b9050600061087860026111f1565b61088260016111f1565b61088c919061172c565b90506000808267ffffffffffffffff8111156108d1577f4e487b7100000000000000000000000000000000000000000000000000000000600052604160045260246000fd5b60405190808252806020026020018201604052801561090a57816020015b6108f7611215565b8152602001906001900390816108ef5790505b50905060005b84811015610b7d57600073ffffffffffffffffffffffffffffffffffffffff166005600060018461094191906116d6565b815260200190815260200160002060040160009054906101000a900473ffffffffffffffffffffffffffffffffffffffff1673ffffffffffffffffffffffffffffffffffffffff161415610b6a576000600560006001846109a291906116d6565b81526020019081526020016000206000015490506000600560008381526020019081526020016000209050806040518060e0016040529081600082015481526020016001820160009054906101000a900473ffffffffffffffffffffffffffffffffffffffff1673ffffffffffffffffffffffffffffffffffffffff1673ffffffffffffffffffffffffffffffffffffffff168152602001600282015481526020016003820160009054906101000a900473ffffffffffffffffffffffffffffffffffffffff1673ffffffffffffffffffffffffffffffffffffffff1673ffffffffffffffffffffffffffffffffffffffff1681526020016004820160009054906101000a900473ffffffffffffffffffffffffffffffffffffffff1673ffffffffffffffffffffffffffffffffffffffff1673ffffffffffffffffffffffffffffffffffffffff168152602001600582015481526020016006820160009054906101000a900460ff161515151581525050848681518110610b4d577f4e487b7100000000000000000000000000000000000000000000000000000000600052603260045260246000fd5b6020026020010181905250600185610b6591906116d6565b945050505b8080610b75906117ba565b915050610910565b508094505050505090565b60026000541415610bce576040517f08c379a0000000000000000000000000000000000000000000000000000000008152600401610bc590611651565b60405180910390fd5b6002600081905550600060056000838152602001908152602001600020600501549050600060056000848152602001908152602001600020600201549050813414610c4e576040517f08c379a0000000000000000000000000000000000000000000000000000000008152600401610c4590611631565b60405180910390fd5b6005600084815260200190815260200160002060030160009054906101000a900473ffffffffffffffffffffffffffffffffffffffff1673ffffffffffffffffffffffffffffffffffffffff166108fc349081150290604051600060405180830381858888f19350505050158015610cca573d6000803e3d6000fd5b508373ffffffffffffffffffffffffffffffffffffffff166323b872dd3033846040518463ffffffff1660e01b8152600401610d0893929190611598565b600060405180830381600087803b158015610d2257600080fd5b505af1158015610d36573d6000803e3d6000fd5b50505050336005600085815260200190815260200160002060040160006101000a81548173ffffffffffffffffffffffffffffffffffffffff021916908373ffffffffffffffffffffffffffffffffffffffff16021790555060016005600085815260200190815260200160002060060160006101000a81548160ff021916908315150217905550610dc860026111ff565b600360009054906101000a900473ffffffffffffffffffffffffffffffffffffffff1673ffffffffffffffffffffffffffffffffffffffff166108fc6004549081150290604051600060405180830381858888f19350505050158015610e32573d6000803e3d6000fd5b50505060016000819055505050565b60606000610e4f60016111f1565b905060008060005b83811015610ef8573373ffffffffffffffffffffffffffffffffffffffff1660056000600184610e8791906116d6565b815260200190815260200160002060030160009054906101000a900473ffffffffffffffffffffffffffffffffffffffff1673ffffffffffffffffffffffffffffffffffffffff161415610ee557600183610ee291906116d6565b92505b8080610ef0906117ba565b915050610e57565b5060008267ffffffffffffffff811115610f3b577f4e487b7100000000000000000000000000000000000000000000000000000000600052604160045260246000fd5b604051908082528060200260200182016040528015610f7457816020015b610f61611215565b815260200190600190039081610f595790505b50905060005b848110156111e6573373ffffffffffffffffffffffffffffffffffffffff1660056000600184610faa91906116d6565b815260200190815260200160002060030160009054906101000a900473ffffffffffffffffffffffffffffffffffffffff1673ffffffffffffffffffffffffffffffffffffffff1614156111d35760006005600060018461100b91906116d6565b81526020019081526020016000206000015490506000600560008381526020019081526020016000209050806040518060e0016040529081600082015481526020016001820160009054906101000a900473ffffffffffffffffffffffffffffffffffffffff1673ffffffffffffffffffffffffffffffffffffffff1673ffffffffffffffffffffffffffffffffffffffff168152602001600282015481526020016003820160009054906101000a900473ffffffffffffffffffffffffffffffffffffffff1673ffffffffffffffffffffffffffffffffffffffff1673ffffffffffffffffffffffffffffffffffffffff1681526020016004820160009054906101000a900473ffffffffffffffffffffffffffffffffffffffff1673ffffffffffffffffffffffffffffffffffffffff1673ffffffffffffffffffffffffffffffffffffffff168152602001600582015481526020016006820160009054906101000a900460ff1615151515815250508486815181106111b6577f4e487b7100000000000000000000000000000000000000000000000000000000600052603260045260246000fd5b60200260200101819052506001856111ce91906116d6565b945050505b80806111de906117ba565b915050610f7a565b508094505050505090565b600081600001549050919050565b6001816000016000828254019250508190555050565b6040518060e0016040528060008152602001600073ffffffffffffffffffffffffffffffffffffffff16815260200160008152602001600073ffffffffffffffffffffffffffffffffffffffff168152602001600073ffffffffffffffffffffffffffffffffffffffff168152602001600081526020016000151581525090565b6000813590506112a581611922565b92915050565b6000813590506112ba81611939565b92915050565b600080604083850312156112d357600080fd5b60006112e185828601611296565b92505060206112f2858286016112ab565b9150509250929050565b60008060006060848603121561131157600080fd5b600061131f86828701611296565b9350506020611330868287016112ab565b9250506040611341868287016112ab565b9150509250925092565b600061135783836114a7565b60e08301905092915050565b61136c81611772565b82525050565b61137b81611772565b82525050565b61138a81611760565b82525050565b61139981611760565b82525050565b60006113aa8261169c565b6113b481856116b4565b93506113bf8361168c565b8060005b838110156113f05781516113d7888261134b565b97506113e2836116a7565b9250506001810190506113c3565b5085935050505092915050565b61140681611784565b82525050565b61141581611784565b82525050565b6000611428601c836116c5565b915061143382611832565b602082019050919050565b600061144b6028836116c5565b91506114568261185b565b604082019050919050565b600061146e603b836116c5565b9150611479826118aa565b604082019050919050565b6000611491601f836116c5565b915061149c826118f9565b602082019050919050565b60e0820160008201516114bd6000850182611535565b5060208201516114d06020850182611381565b5060408201516114e36040850182611535565b5060608201516114f66060850182611363565b5060808201516115096080850182611363565b5060a082015161151c60a0850182611535565b5060c082015161152f60c08501826113fd565b50505050565b61153e816117b0565b82525050565b61154d816117b0565b82525050565b60006080820190506115686000830187611372565b6115756020830186611372565b6115826040830185611544565b61158f606083018461140c565b95945050505050565b60006060820190506115ad6000830186611390565b6115ba6020830185611390565b6115c76040830184611544565b949350505050565b600060208201905081810360008301526115e9818461139f565b905092915050565b6000602082019050818103600083015261160a8161141b565b9050919050565b6000602082019050818103600083015261162a8161143e565b9050919050565b6000602082019050818103600083015261164a81611461565b9050919050565b6000602082019050818103600083015261166a81611484565b9050919050565b60006020820190506116866000830184611544565b92915050565b6000819050602082019050919050565b600081519050919050565b6000602082019050919050565b600082825260208201905092915050565b600082825260208201905092915050565b60006116e1826117b0565b91506116ec836117b0565b9250827fffffffffffffffffffffffffffffffffffffffffffffffffffffffffffffffff0382111561172157611720611803565b5b828201905092915050565b6000611737826117b0565b9150611742836117b0565b92508282101561175557611754611803565b5b828203905092915050565b600061176b82611790565b9050919050565b600061177d82611790565b9050919050565b60008115159050919050565b600073ffffffffffffffffffffffffffffffffffffffff82169050919050565b6000819050919050565b60006117c5826117b0565b91507fffffffffffffffffffffffffffffffffffffffffffffffffffffffffffffffff8214156117f8576117f7611803565b5b600182019050919050565b7f4e487b7100000000000000000000000000000000000000000000000000000000600052601160045260246000fd5b7f7072696365206d757374206265206174206c6561737420312077656900000000600082015250565b7f7072696365206d75737420626520657175616c20746f20746865206c6973746960008201527f6e67207072696365000000000000000000000000000000000000000000000000602082015250565b7f706c65617365207375626d69742061736b696e6720707269636520696e6f726460008201527f657220746f20636f6d706c657465207468652070757263686173650000000000602082015250565b7f5265656e7472616e637947756172643a207265656e7472616e742063616c6c00600082015250565b61192b81611760565b811461193657600080fd5b50565b611942816117b0565b811461194d57600080fd5b5056fea26469706673582212209ed65e73f581211e073d0286a997b618f88785a6b8d99d84ce2aa2d7c891966764736f6c63430008040033",
  "linkReferences": {},
  "deployedLinkReferences": {}
}